:100000000C9462000C948A000C948A000C948A0070
:100010000C948A000C948A000C948A000C948A0038
:100020000C948A000C948A000C948A000C948A0028
:100030000C948A000C948A000C948A000C948A0018
:100040000C946A030C948A000C948A000C948A0025
:100050000C948A000C948A000C948A000C948A00F8
:100060000C948A000C948A000000000024002700F1
:100070002A0000000000250028002B0000000008D6
:10008000000201000003040700000000000000005F
:1000900000000000230026002900040404040404D6
:1000A0000404020202020202030303030303010227
:1000B00004081020408001020408102001020408F6
:1000C00010206E0711241FBECFEFD8E0DEBFCDBFDA
:1000D00012E0A0E0B1E0EAEDF1E102C005900D927E
:1000E000A23CB107D9F722E0A2ECB2E001C01D9218
:1000F000A33EB207E1F710E0C2E6D0E004C02197CA
:10010000FE010E94E508C136D107C9F70E94F90334
:100110000C94EB080C940000AF92BF92CF92DF9248
:10012000EF92FF920F931F93CF93DF936C017B01AC
:100130008B01040F151FEB015E01AE18BF08C0173D
:10014000D10759F06991D601ED91FC910190F081B0
:10015000E02DC6010995892B79F7C501DF91CF9173
:100160001F910F91FF90EF90DF90CF90BF90AF90D5
:10017000089590E0FC01E458FF4F2491FC01E25502
:10018000FF4F3491FC01E656FF4FE491EE23C9F096
:10019000222339F0233001F1A8F4213019F1223063
:1001A00029F1F0E0EE0FFF1FEE58FF4FA591B4913B
:1001B0008FB7F894EC91611126C030953E233C93A3
:1001C0008FBF08952730A9F02830C9F0243049F7AF
:1001D000809180008F7D03C0809180008F77809315
:1001E0008000DFCF84B58F7784BDDBCF84B58F7D72
:1001F000FBCF8091B0008F778093B000D2CF8091F9
:10020000B0008F7DF9CF3E2BDACFCF93DF9390E014
:10021000FC01E255FF4F249186569F4FFC018491CB
:100220008823D1F090E0880F991FFC01E859FF4F17
:10023000A591B491FC01EE58FF4FC591D491611185
:100240000EC09FB7F8948C91E22FE0958E238C938B
:100250002881E223E8839FBFDF91CF9108958FB774
:10026000F894EC91E22BEC938FBFF6CF3FB7F89464
:100270008091C7029091C802A091C902B091CA02B0
:1002800026B5A89B05C02F3F19F00196A11DB11DF1
:100290003FBFBA2FA92F982F8827BC01CD01620F2D
:1002A000711D811D911D42E0660F771F881F991FE8
:1002B0004A95D1F708958F929F92AF92BF92CF92B5
:1002C000DF92EF92FF924B015C010E9436016B01BD
:1002D0007C010E9436016C197D098E099F09683ED8
:1002E000734081059105A8F321E0821A9108A108C5
:1002F000B10888EEC80E83E0D81EE11CF11C811401
:100300009104A104B10429F7FF90EF90DF90CF9002
:10031000BF90AF909F908F900895089590E080E0F7
:1003200008958F929F92AF92BF920F931F93CF9396
:10033000DF93CDB7DEB7A1970FB6F894DEBF0FBE3F
:10034000CDBF19A2423008F44AE08E010F5D1F4F65
:10035000842E912CB12CA12CA50194010E94C308DC
:10036000E62FB901CA01EA3044F5E05DD801EE9309
:100370008D01232B242B252B79F790E080E010971B
:1003800069F0FD0101900020E9F73197AF014A1BA8
:100390005B0BBD018BEC92E00E948C00A1960FB626
:1003A000F894DEBF0FBECDBFDF91CF911F910F91AB
:1003B000BF90AF909F908F900895E95CD7CFFC01DC
:1003C00001900020E9F73197AF01481B590BBC01A0
:1003D0008BEC92E00C948C00CF93DF93EC0160E007
:1003E0008E810E94B90061E08E810E94B90060E0B8
:1003F0008E810E94B9008BE891E00197F1F7DF91BF
:10040000CF910895CF92DF92EF92FF920F931F93B7
:10041000CF93DF936C017C0187E0E80EF11CD0E004
:10042000C0E0062F10E0B8010C2E02C0759567954C
:100430000A94E2F76170F70181917F010E94B9008F
:100440002196C430D10579F7C601DF91CF911F9174
:100450000F91FF90EF90DF90CF900C94EC01CF9232
:10046000DF92EF92FF920F931F93CF93DF93EC01F4
:10047000F62E642F8C810E94B9008D818F3F19F078
:1004800060E00E94B9000F2D10E08F8584FF25C029
:100490006E0187E0C80ED11CF12CE12CB8010E2CA6
:1004A00002C0759567950A94E2F76170F601819133
:1004B0006F010E94B900FFEFEF1AFF0A88E0E8160B
:1004C000F10461F7CE01DF91CF911F910F91FF9061
:1004D000EF90DF90CF900C94EC01B80184E075951B
:1004E00067958A95E1F7CE010E9402026F2DCE0139
:1004F000DF91CF911F910F91FF90EF90DF90CF9000
:100500000C94020240E0682F8BEC92E00C942F02D6
:1005100081E00E9482028BE39FE10197F1F7089549
:10052000CF93DF93613029F09091DA029860909335
:10053000DA026093DE021092DF0290E49093E00210
:100540008093E102805C8093E20261E08091CF02BF
:100550000E9405018091D0028F3F19F061E00E9456
:10056000050161E08091D1020E940501CBECD2E04F
:100570009E012B5C32408091DA0284FD0BC084E046
:1005800090E021962817390744F461E08E810E949B
:100590000501EECF88E090E0F4CF8BE39DE001977A
:1005A000F1F760E08091CF020E94B90060E0809195
:1005B000D1020E94B9008091D0028F3F19F060E013
:1005C0000E94B9008091DA0284FD34C063E08BECB4
:1005D00092E00E940202CBE4D6E4CE010197F1F74B
:1005E00063E08BEC92E00E9402022197F1F763E056
:1005F0008BEC92E00E94020283E592E00197F1F712
:1006000062E08BEC92E00E9402028091DA0280624A
:100610000E94820284E08093DB028CE00E948202CE
:100620000E94880282E08093DC0286E0DF91CF9115
:100630000C94820280620E9482028BE496E401970D
:10064000F1F78091DA0280620E94820283E592E0F3
:100650000197F1F78091DA0280620E948202D5CF81
:100660009091DE02691710F06FEF690FE62FF0E04E
:10067000E553FD4F9489890F80680C94820241E014
:100680000E942F0281E090E00895CF92DF92EF92D6
:10069000FF9297FF18C06B017C0141E06DE28BEC8B
:1006A00092E00E942F0266277727CB016C197D0903
:1006B0008E099F094AE00E9491010196FF90EF90F8
:1006C000DF90CF9008954AE0FF90EF90DF90CF90B9
:1006D0000C9491011F920F920FB60F9211242F9339
:1006E0003F938F939F93AF93BF938091C302909159
:1006F000C402A091C502B091C6023091C20223E0AB
:10070000230F2D3758F50196A11DB11D2093C2026C
:100710008093C3029093C402A093C502B093C60213
:100720008091C7029091C802A091C902B091CA02FB
:100730000196A11DB11D8093C7029093C802A0939A
:10074000C902B093CA02BF91AF919F918F913F911F
:100750002F910F900FBE0F901F90189526E8230F32
:100760000296A11DB11DD2CFCF92DF92EF92FF92E0
:100770000F931F93E82FF92F05C00150110921098C
:10078000310961F1908196239417B9F305C00150A6
:1007900011092109310911F1908196239413F7CFA2
:1007A000C12CD12CE12CF12C0AC08FEFC81AD80A29
:1007B000E80AF80A0C151D052E053F0579F0808121
:1007C0008623841791F36C2D7D2D8E2D9F2D1F91E7
:1007D0000F91FF90EF90DF90CF90089560E070E070
:1007E00080E090E01F910F91FF90EF90DF90CF900D
:1007F0000895789484B5826084BD84B5816084BD99
:1008000085B5826085BD85B5816085BD80916E00AE
:10081000816080936E0010928100809181008260DF
:10082000809381008091810081608093810080911C
:1008300080008160809380008091B100846080930B
:10084000B1008091B00081608093B00080917A0007
:10085000846080937A0080917A00826080937A002D
:1008600080917A00816080937A0080917A0080681C
:1008700080937A001092C10061E08DE00E94050132
:1008800060E08BE00E94050164E084E10E94900238
:1008900060E081E00E9430038CE091E00E94DF0183
:1008A00060ED77E080E090E00E945B010E948802AA
:1008B00060E080E00E9430038FE191E00E94DF0160
:1008C00061E081E00E94300383E291E00E94DF0159
:1008D00062E085E00E9430038EE291E00E94DF0139
:1008E00060ED77E080E090E00E945B010E9488026A
:1008F00060E080E00E94300387E391E00E94DF0126
:10090000C3E0D0E043E2E42EF12C59EB852E50E019
:10091000952E65EAC62E60E0D62E70E0A72E70E018
:10092000B72E60E08DE00E94B900CE010197F1F78B
:1009300061E08DE00E94B900C7010197F1F760E026
:100940008DE00E94B900F4016491F6018491E82FD2
:10095000F0E0EE0FFF1FE057FF4F8591949100E408
:1009600012E42FE030E0462F0E94B40361157105B8
:100970008105910529F06F5F7F4F8F4F9F4F9F70CB
:1009800095958795779567950E9437082DEC3CECF7
:1009900048EE51E40E948D070E94FF072B013C01A5
:1009A00061E080E00E94300382E491E00E94DF0178
:1009B00061E080E00E943003C301B2010E94450360
:1009C00089E791E00E94DF01F5E14F1651046104CF
:1009D0007104ACF561E080E00E94300389E491E0AD
:1009E0000E94DF018CE691E00E94DF0161E080E07F
:1009F0000E943003C301B2010E94450389E791E0E0
:100A00000E94DF0162E080E00E9430038DE791E008
:100A10000E94DF0163E080E00E94300388E891E0FB
:100A20000E94DF016AEF70E080E090E00E945B01CD
:100A3000A114B10409F475CF0E94000072CF85E6BD
:100A400048165104610471043CF561E080E00E94A5
:100A5000300387E491E00E94DF018CE691E00E9480
:100A6000DF0161E080E00E943003C301B2010E9417
:100A7000450389E791E00E94DF0162E080E00E9487
:100A800030038DE791E00E94DF0163E080E00E9487
:100A9000300382E991E0C4CFE9EC4E1651046104C1
:100AA00071043CF561E080E00E9430038BE491E04A
:100AB0000E94DF018CE691E00E94DF0161E080E0AE
:100AC0000E943003C301B2010E94450389E791E00F
:100AD0000E94DF0162E080E00E9430038DE791E038
:100AE0000E94DF0163E080E00E9430038AEA91E027
:100AF00097CFFDE24F16F1E05F06610471043CF50B
:100B000061E080E00E9430038AE491E00E94DF010E
:100B10008CE691E00E94DF0161E080E00E943003FA
:100B2000C301B2010E94450389E791E00E94DF0101
:100B300062E080E00E9430038DE791E00E94DF01D7
:100B400063E080E00E94300380EC91E069CF81E9AE
:100B5000481681E05806610471043CF561E080E0CC
:100B60000E9430038DE491E00E94DF018CE691E069
:100B70000E94DF0161E080E00E943003C301B20106
:100B80000E94450389E791E00E94DF0162E080E076
:100B90000E9430038DE791E00E94DF0163E080E076
:100BA0000E94300388ED91E03BCFE5EF4E16E1E087
:100BB0005E06610471043CF561E080E00E94300350
:100BC0008BE491E00E94DF018CE691E00E94DF015E
:100BD00061E080E00E943003C301B2010E9445033E
:100BE00089E791E00E94DF0162E080E00E9430032B
:100BF0008DE791E00E94DF0163E080E00E94300316
:100C00008EEE91E00DCFF9E54F16F2E05F0661043C
:100C100071043CF561E080E00E94300389E491E0DA
:100C20000E94DF018CE691E00E94DF0161E080E03C
:100C30000E943003C301B2010E94450389E791E09D
:100C40000E94DF0162E080E00E9430038DE791E0C6
:100C50000E94DF0163E080E00E94300385E092E0C3
:100C6000DFCE8DEB481682E05806610471043CF536
:100C700061E080E00E94300389E491E00E94DF019E
:100C80008CE691E00E94DF0161E080E00E94300389
:100C9000C301B2010E94450389E791E00E94DF0190
:100CA00062E080E00E9430038DE791E00E94DF0166
:100CB00063E080E00E9430038DE192E0B1CEE1E29A
:100CC0004E16E3E05E06610471043CF561E080E0ED
:100CD0000E9430038AE491E00E94DF018CE691E0FB
:100CE0000E94DF0161E080E00E943003C301B20195
:100CF0000E94450389E791E00E94DF0162E080E005
:100D00000E9430038DE791E00E94DF0163E080E004
:100D10000E94300385E392E083CEF5E84F16F3E0BE
:100D20005F06610471043CF561E080E00E943003DD
:100D30008EE491E00E94DF018CE691E00E94DF01E9
:100D400061E080E00E943003C301B2010E944503CC
:100D500089E791E00E94DF0162E080E00E943003B9
:100D60008DE791E00E94DF0163E080E00E943003A4
:100D70008CE492E055CE89EE481683E05806610473
:100D800071043CF561E080E00E9430038DE491E065
:100D90000E94DF018CE691E00E94DF0161E080E0CB
:100DA0000E943003C301B2010E94450389E791E02C
:100DB0000E94DF0162E080E00E9430038DE791E055
:100DC0000E94DF0163E080E00E94300385E692E04C
:100DD00027CEEDE44E16E4E05E06610471043CF5B6
:100DE00061E080E00E9430038EE491E00E94DF0128
:100DF0008CE691E00E94DF0161E080E00E94300318
:100E0000C301B2010E94450389E791E00E94DF011E
:100E100062E080E00E9430038DE791E00E94DF01F4
:100E200063E080E00E9430038CE792E0F9CDF1EBC3
:100E30004F16F4E05F06610471043CF561E080E068
:100E40000E9430038FE491E00E94DF018CE691E084
:100E50000E94DF0161E080E00E943003C301B20123
:100E60000E94450389E791E00E94DF0162E080E093
:100E70000E9430038DE791E00E94DF0163E080E093
:100E80000E94300381E992E0CBCD0E94880261E0AC
:100E900080E00E94300382E591E00E94DF018CE651
:100EA00091E00E94DF0161E080E00E943003C30115
:100EB000B2010E94450389E791E00E94DF0162E0F0
:100EC00080E00E9430038DE791E00E94DF0163E043
:100ED00080E00E94300386EA92E0A2CDEBECF2E0E3
:100EE0001382128284E091E0918380838AE084837C
:100EF0008FEF858389E0868385E0878384E0808720
:100F000083E0818782E082871386148615861686A1
:100F1000178661E080E10C9490020E94A1070C9476
:100F200089080E94820858F00E947B0840F029F44A
:100F30005F3F29F00C94720851110C94BD080C9479
:100F400078080E949A0868F39923B1F3552391F326
:100F5000951B550BBB27AA2762177307840738F028
:100F60009F5F5F4F220F331F441FAA1FA9F335D085
:100F70000E2E3AF0E0E832D091505040E695001C39
:100F8000CAF72BD0FE2F29D0660F771F881FBB1FF3
:100F9000261737074807AB07B0E809F0BB0B802DD1
:100FA000BF01FF2793585F4F3AF09E3F510578F0FD
:100FB0000C9472080C94BD085F3FE4F3983ED4F3A0
:100FC000869577956795B795F7959F5FC9F7880FD1
:100FD000911D9695879597F90895E1E0660F771F23
:100FE000881FBB1F621773078407BA0720F0621BB4
:100FF000730B840BBA0BEE1F88F7E09508950E94DF
:1010000006086894B1110C94BD0808950E94A208C6
:1010100088F09F5798F0B92F9927B751B0F0E1F0B9
:10102000660F771F881F991F1AF0BA95C9F714C069
:10103000B13091F00E94BC08B1E008950C94BC0856
:10104000672F782F8827B85F39F0B93FCCF38695A2
:1010500077956795B395D9F73EF4909580957095FF
:1010600061957F4F8F4F9F4F0895E89409C097FB7C
:101070003EF490958095709561957F4F8F4F9F4F6F
:101080009923A9F0F92F96E9BB279395F6958795B3
:1010900077956795B795F111F8CFFAF4BB0F11F476
:1010A00060FF1BC06F5F7F4F8F4F9F4F16C088231D
:1010B00011F096E911C0772321F09EE8872F762F53
:1010C00005C0662371F096E8862F70E060E02AF094
:1010D0009A95660F771F881FDAF7880F9695879580
:1010E00097F9089597F99F6780E870E060E00895A8
:1010F0009FEF80EC089500240A9416161706180630
:101100000906089500240A9412161306140605060B
:101110000895092E0394000C11F4882352F0BB0F9C
:1011200040F4BF2B11F460FF04C06F5F7F4F8F4FFF
:101130009F4F089557FD9058440F551F59F05F3F3A
:1011400071F04795880F97FB991F61F09F3F79F0E9
:1011500087950895121613061406551FF2CF46956B
:10116000F1DF08C0161617061806991FF1CF8695ED
:101170007105610508940895E894BB2766277727D1
:10118000CB0197F90895A1E21A2EAA1BBB1BFD0102
:101190000DC0AA1FBB1FEE1FFF1FA217B307E40756
:1011A000F50720F0A21BB30BE40BF50B661F771FAE
:1011B000881F991F1A9469F760957095809590958E
:1011C0009B01AC01BD01CF010895EE0FFF1F0590FB
:0A11D000F491E02D0994F894FFCF8C
:1011DA00000000003F038C008E018D01446967699D
:1011EA0074616C204675656C204D657465720042A9
:1011FA00793A004A4149534F4E2056204A00414EFF
:10120A0044205445414D004675656C204C65766511
:10121A006C00202020202020202020202020202098
:10122A0020202020202020202020202020202020B4
:10123A002020202020202020202020004675656CB8
:10124A00204C6576656C20496E20636D0046756595
:10125A006C20696E206D6C004C6F77204C6576654A
:10126A006C004170702E203235306D6C20202020A9
:10127A0020202020202020202000204170702E20B5
:10128A003530306D6C2020202020202020202000A6
:10129A004170702E203735306D6C202020202020A0
:1012AA0020202020202020004170702E2031303054
:1012BA0030206D6C2020202020202020200041702A
:1012CA00702E2031323530206D6C202020202020D5
:1012DA0020202020004170702E2031353030206DC2
:1012EA006C20202020202020202020200041707007
:1012FA002E2031373530206D6C20202020202020F0
:10130A0020202020004170702E2032303030206D95
:10131A006C20202020202020202020004170702EC8
:10132A002032323530206D6C2020202020202020D1
:10133A0020202020004170702E2032353030206D60
:10134A006C20202020202020202020004170702E98
:10135A002032373530206D6C20202020202020209C
:10136A00004170702E2033303030206D6C202020E8
:10137A00202020202000456D707479204C65766508
:10138A006C20202020202020202020202020202007
:02139A00000051
:00000001FF
